:100000000C94A8000C94C9000C94C9000C94C9006D
:100010000C94C9000C94F0010C94CB010C94C90011
:100020000C94C9000C94C9000C94C9000C94C9002C
:100030000C94C9000C94C9000C94C9000C94C9001C
:100040000C94C9000C94C9000C94C9000C94C9000C
:100050000C94C9000C94C9000C94C9000C94C900FC
:100060000C94C9000C9411010C94C9000C94C900A3
:100070000C94C9000C94C9000C94C9000C94C900DC
:100080000C94C9000C94C9000C94C9000C94C900CC
:100090000C94C9000C94C9000C94C9000C94C900BC
:1000A0000C94C9000C94C9000C94C9000C94C900AC
:1000B0000C94C9000C94C9000C94C9000C94C9009C
:1000C0000C94C9000C94C9000C94C9000C94C9008C
:1000D0000C94C9000C94C9000C94C9000C94C9007C
:1000E0000C94C900CC09F907FE0707080C08110891
:1000F0001808210828082F083808430848084F081E
:1001000054085D0866086B0872087708800889083B
:1001100094089C08A408AE08BA08C608D108D908F3
:10012000E108EB08F70803090B0915091D0929095E
:1001300035093C0945094C09570962096A097209E0
:100140007C09880990099809A209AE09B809C00973
:1001500011241FBECFEFD1E2DEBFCDBF00E00CBF48
:1001600014E0A0E0B2E0E0E4F3E300E00BBF02C083
:1001700007900D92A238B107D9F715E0A2E8B4E0D4
:1001800001C01D92A73BB107E1F70E9478130C94C0
:100190009E190C940000259A2D9A0895E1E8F0E04C
:1001A00010828CEF8093850081E08093840093E03F
:1001B000909389008FEF80938800909387008093BD
:1001C00086008BEA80938000109282008CE080830E
:1001D000089510928900682F70E080E090E00E94FE
:1001E000FC182BE734E14EEE5FE30E94681820E034
:1001F00030E04CE052E40E9404180E94D018609352
:100200008800089583E0809389008FEF80938800B1
:100210000895E0ECF0E0908195FFFDCF8093C6005B
:1002200008951F920F920FB60F9211248F93809111
:10023000C600809396058F910F900FBE0F901F9070
:100240001895E0ECF0E080818823ECF78091C600FF
:100250000895E1ECF0E010821092C00086E08093F7
:10026000C2008FE58093C4001092C50088E98083A6
:1002700008953B9A4398089586B1886088B9089597
:1002800086B1877F88B9089510BA11BA1092070114
:10029000109208010895EAE7F0E0108210927B00C6
:1002A00080E280937C0080E880BF86E880830895A8
:1002B000883018F098E090937B008770806280937C
:1002C0007C00EAE7F0E0808180648083808184FFA5
:1002D000FDCF80917900EAE7F0E090819061908312
:1002E00010927B000895E1E2F1E010828FEF80939D
:1002F000250191E090932401109229018093280117
:1003000010922B0180932A0189EA809320018BE0CF
:10031000808308958093280160932A01089581E0E5
:10032000809301011092020108958FE081B912B803
:1003300088E180930A0180930B01089581E0809306
:100340000201089510920201089586E082B908958D
:1003500089E082B9089585E082B908958AE082B97A
:10036000089512B808956C98749A08956D98759AC6
:100370000895F894EAE6F0E0808182608083EC9A48
:1003800078940895F894EAE6F0E0808188608083AC
:10039000ED9A789408951F920F920FB60F92112440
:1003A0008F939F93AF93BF938091DC049091DD0472
:1003B000A091DE04B091DF040196A11DB11D8093D0
:1003C000DC049093DD04A093DE04B093DF04BF91BE
:1003D000AF919F918F910F900FBE0F901F90189526
:1003E0001F920F920FB60F9211248F939F93AF938A
:1003F000BF938091E0049091E104A091E204B09158
:10040000E3040196A11DB11D8093E0049093E104E3
:10041000A093E204B093E304BF91AF919F918F91B9
:100420000F900FBE0F901F901895BC0180E090E0D8
:100430000E94FC182AE939E949E95EE30E9468183C
:100440000E94D018DC01CB01A0E0B0E01092DC04E7
:100450001092DD041092DE041092DF041092E0048A
:100460001092E1041092E2041092E3044091DC0443
:100470005091DD046091DE047091DF044817590744
:100480006A077B0768F44091E0045091E1046091B1
:10049000E2047091E304481759076A077B0730F3B9
:1004A0000E94B10180E090E00895CF93DF93EC01CA
:1004B0000E94AB01CE010E941502DF91CF910895F9
:1004C000CF93DF93EC010E94AE01CE010E94150292
:1004D00080E090E0DF91CF910895BC0180E090E052
:1004E0000E94FC1825EE30ED4AEA50E40E9468189C
:1004F0000E94D018462F572F682F792F1092DC04B6
:100500001092DD041092DE041092DF048091DC046E
:100510009091DD04A091DE04B091DF0448175907E3
:100520006A077B0798F70E94B1010895CF93DF9384
:10053000EC0186E969E90E948A010E94A501CE01C9
:100540000E946D02DF91CF910895CF93DF93EC016C
:1005500086E969E90E948A010E94A801CE010E94F1
:100560006D02DF91CF9108958091E504853670F09A
:100570008091E604843650F48091E404843630F4AB
:1005800082E865E70E948A010E94A5018091E50446
:100590008436C0F48091E604843650F48091E404FB
:1005A000853630F00E94AE018091E504843650F427
:1005B0008091E604853630F08091E404843610F4AE
:1005C0000E94AB010895F8940E948F010E94CB0015
:1005D0000E9429010E9439010E9444010E94CE001C
:1005E0000E9473010E944B010E94B3010E94B60158
:1005F0000E94B9010E94C20178940895EF92FF927F
:100600000F931F93CF93DF937C010CEE12E0C0E0B9
:10061000D0E0C801B7010E949519282F392F211564
:10062000310541F02196095F1F4FC933D10589F784
:10063000C0E0D0E08C2F9D2FDF91CF911F910F91C3
:10064000FF90EF90089561157105A1F4FC01EE0F84
:10065000FF1FEE0FFF1FE85FFD4F80819181909398
:100660008F0580938E05828193819093A00580935E
:100670009F0544C061307105A1F4FC01EE0FFF1F1E
:10068000EE0FFF1FE85FFD4F808191819093B405CD
:100690008093B30582819381909398058093970509
:1006A0002DC062307105A1F4FC01EE0FFF1FEE0FAB
:1006B000FF1FE85FFD4F8081918190939E0580939D
:1006C0009D058281938190938D0580938C0516C042
:1006D0006330710599F4FC01EE0FFF1FEE0FFF1F51
:1006E000E85FFD4F80819181909392058093910501
:1006F00082819381909395058093940580E090E0AA
:10070000089580ED94E060E072E00E949519282F32
:10071000392F2115310539F481E090E090939C0543
:1007200080939B0506C084E390E090939C058093A2
:100730009B0580E090E00895CF93DF93A62FB72F1D
:10074000E82FF92F20E030E04FEF5FE78D919D918A
:10075000009741F480819181481759071CF0C22FFE
:10076000D32FAC012F5F3F4F32962633310571F7FF
:100770008C2F9D2FDF91CF9108950F931F93CF93CF
:10078000DF938B01EA01FB01EE0FFF1FE80FF91F5A
:10079000608171812FEF6F3F7207B1F10E94BD033D
:1007A000C230D10589F580917D0490917E0481301D
:1007B0009105D1F48091B1059091B2050196909385
:1007C000B2058093B105FC01EE0FFF1FE951FB4F0D
:1007D00080919B0590919C059183808382E090E0BD
:1007E00090937E0480937D048091B1059091B20531
:1007F00001969093B2058093B105FC01EE0FFF1FA7
:10080000E951FB4F11830083DF91CF911F910F912D
:100810000895AF92BF92CF92DF92EF92FF920F9323
:100820001F93CF93DF935C016A017901C0E0D0E0B0
:10083000CE15DF0581F40130110541F4EE0CFF1CEB
:10084000AE0CBF1CF501808191810BC0C601B701C0
:10085000A8010E94BD032196C633D10549F780E067
:1008600090E0DF91CF911F910F91FF90EF90DF907B
:10087000CF90BF90AF9008952F923F924F925F928A
:100880006F927F928F929F92AF92BF92CF92DF92A0
:10089000EF92FF920F931F93CF93DF93CDB7DEB705
:1008A000CC54D1400FB6F894DEBF0FBECDBF4C0183
:1008B0008B01C75BDE4F59834883C954D140C55B68
:1008C000DE4F39832883CB54D1408FEF9FEF909335
:1008D000B2058093B10581E090E090937E0480930F
:1008E0007D04BE016F5F7F4FAE0143595F4FCA0168
:1008F000DA01FB012FEF3FE7219331931D921D9207
:10090000E817F907C9F7C801880F991FE9EDF0E06A
:10091000EC0FFD1FE80FF91F2FEF3FEF318320830E
:10092000FE01E80FF91F128211820F2EF5E3AF2EA0
:10093000BB24F02D6624772463940F2EFCE64F2E03
:100940005524F02DCB5BDE4F6883C554D140CA5B84
:10095000DE4F7883C654D140C95BDE4F4883C7540D
:10096000D140C85BDE4F5883C854D1402224332481
:10097000CE010196BE0163597F4F0E949C036C011A
:10098000880F991F2DE630E02C0F3D1F820F931F1B
:10099000FC0171826082C49CC001C59C900DD49CF6
:1009A000900D11248401080F191FCB5BDE4FA88125
:1009B000C554D140CA5BDE4FB881C654D140C95B33
:1009C000DE4F6881C754D140C85BDE4F7881C85480
:1009D000D140A101C601880F991FEE24FF24E394A2
:1009E000EC0EFD1EE80EF91EFB0181919191BF01F5
:1009F0000097E9F4F801E40FF51F808191810097D9
:100A0000B1F0F70120813181280F391F8D919C9120
:100A10001197281739075CF4E9EDF0E0EC0FFD1FA2
:100A2000E40FF51FD182C08211963C932E934E5F46
:100A30005F4F12964C365105B9F60894A108B108DB
:100A4000A114B10409F094CFCE01019666E370E0E1
:100A5000AE0147525F4FC75BDE4F28813981C954D1
:100A6000D140C55BDE4F08811981CB54D1400E9433
:100A70000904C45BDE4F0FB6F894DEBF0FBECDBFD6
:100A8000DF91CF911F910F91FF90EF90DF90CF906A
:100A9000BF90AF909F908F907F906F905F904F909E
:100AA0003F902F9008950F931F93CF93DF938091E2
:100AB0005305882309F062C080917F0490918004DF
:100AC0008130910569F58091990590919A0583305F
:100AD000910589F480EA90E00E94600283E090E052
:100AE0009093800480937F040E94B10184EF91E091
:100AF0000E94A50243C08230910509F03FC080EA00
:100B000090E00E94550282E090E0909380048093F0
:100B10007F040E94B10184EF91E00E94A5022EC0E3
:100B20008230910581F58091990590919A058130E7
:100B3000910589F480EA90E00E94600281E090E0F3
:100B40009093800480937F040E94B10184EF91E030
:100B50000E94A50213C08330910581F480EA90E0E1
:100B60000E94550283E090E09093800480937F047C
:100B70000E94B10184EF91E00E94A502C0E0D0E0A4
:100B800003E515E02FC083309105C1F780919905E9
:100B900090919A058130910589F480EA90E00E9455
:100BA000550281E090E09093800480937F040E943E
:100BB000B10184EF91E00E94A502E0CF823091055F
:100BC000E9F680EA90E00E94600282E090E0909373
:100BD000800480937F040E94B10184EF91E00E9421
:100BE000A502CCCF83E00E9458018093E60482E006
:100BF0000E9458018093E50481E00E94580180938F
:100C0000E40483E00E9458018093E60482E00E949D
:100C100058018093E50481E00E9458018093E40428
:100C20000E94B4028091E404813258F38091E5047B
:100C3000813238F38091E604813218F30E94B101C9
:100C40008FEF9FEFA8E081509040A040E1F700C0F7
:100C5000000080E590E00E949602F801EC0FFD1F75
:100C600080818C3451F480E590E00E94550288EC3C
:100C700090E00E9496022196B5CF823551F480E52E
:100C800090E00E94600288EC90E00E94960221961B
:100C9000A9CF882349F40E94B10180E090E0DF9160
:100CA000CF911F910F9108950E94B1019BCF0F9397
:100CB0001F93CF93DF938C01EB01181619060CF0EC
:100CC00074C01C161D060CF0EDC080917F0490913D
:100CD00080048330910509F0E5C08CE291E00E9428
:100CE000960280EA90E00E9460020E94B1018FEFBC
:100CF0009FE7A6E181509040A040E1F700C00000CE
:100D000080E293E00E94A50282E090E0909380044C
:100D100080937F04C7C080917F04909180048130CC
:100D2000910509F0C2C08CE291E00E94960280EA2F
:100D300090E00E9460020E94B1018FEF9FE7A6E160
:100D400081509040A040E1F700C0000080E293E0B5
:100D50000E94A50283E090E09093800480937F043A
:100D600024C080917F049091800482309105E9F441
:100D70008CE291E00E94960280EA90E00E9460027C
:100D80000E94B1018FEF9FE7A6E181509040A04003
:100D9000E1F700C0000080E293E00E94A50281E03C
:100DA00090E09093800480937F0411230CF073C033
:100DB000DD230CF07EC080917F049091800483300D
:100DC000910509F076C08CE291E00E94960280EADB
:100DD00090E00E9460020E94B1018FEF9FE7A6E1C0
:100DE00081509040A040E1F700C0000080E293E015
:100DF0000E94A50282E090E09093800480937F049B
:100E000058C080917F04909180048130910509F051
:100E100053C08CE291E00E94960280EA90E00E942A
:100E200060020E94B1018FEF9FE7A6E181509040E0
:100E3000A040E1F700C0000080E293E00E94A5021C
:100E400083E090E09093800480937F0424C080919D
:100E50007F049091800482309105E9F48CE291E066
:100E60000E94960280EA90E00E9460020E94B10116
:100E70008FEF9FE7A6E181509040A040E1F700C0CE
:100E8000000080E293E00E94A50281E090E0909350
:100E9000800480937F0480E090E0DF91CF911F91E8
:100EA0000F910895209709F436CFDD230CF07DCF04
:100EB00058CF209709F4A5CF1C161D0644F2EBCF9E
:100EC00020917F043091800422303105B1F48D5A95
:100ED0009A4FFC0180818C3439F481E090E090934A
:100EE000800480937F043AC08235C1F583E090E0AE
:100EF0009093800480937F0431C021303105B1F498
:100F00008D5A9A4FFC0180818C3439F483E090E053
:100F10009093800480937F0421C08235F9F482E0AD
:100F200090E09093800480937F0418C023303105B3
:100F3000A9F48D5A9A4FFC0180818C3439F482E0F7
:100F400090E09093800480937F0408C0823531F450
:100F500081E090E09093800480937F0480E090E0B3
:100F600008952F923F924F925F926F927F928F924D
:100F70009F92AF92BF92CF92DF92EF92FF920F9328
:100F80001F93CF93DF93CDB7DEB72A970FB6F894B0
:100F9000DEBF0FBECDBF22E030E00E943C04809156
:100FA000B1059091B205181619060CF41DC38FEF08
:100FB0009FEF9A83898334C34130510519F0298505
:100FC0003A8502C0262D342DC901880F991F8951F9
:100FD0009B4FFC01808191818633910508F0E2C12D
:100FE0008E589F4FFC01EE0FFF1F0590F491E02DEE
:100FF0001994CC24DD24AA24BB24D4C10F2EFEEFE7
:10100000CF2EF02DDD24DA94AA24BB24CBC1C02E30
:10101000D12EA82CB92CC6C1C82CD92CA82CB92CDF
:10102000C1C1CC24CA94DD24DA94A82CB92CBAC14D
:101030000F2EFDEFCF2EF02DDD24DA94A82CB92C45
:10104000B1C1C02ED12EAA246894A1F8BB24AAC194
:10105000C82CD92CAA246894A1F8BB24A3C1CC2401
:10106000CA94DD24DA94AA246894A1F8BB249AC116
:101070000F2EFDEFCF2EF02DDD24DA94AA246894F4
:10108000A1F8BB248FC1C22CD32CA02EB12E8AC1B3
:10109000CC246894C1F8DD24A02EB12E83C1CC24C9
:1010A000DD24A02EB12E7EC10F2EFEEFCF2EF02D0F
:1010B000DD24DA94A02EB12E75C10F2EFCEFCF2EB9
:1010C000F02DDD24DA94A02EB12E6CC1C22CD32CCD
:1010D000A22CB32C67C1CC246894C1F8DD24A22CC7
:1010E000B32C60C1CC24DD24A22CB32C5BC10F2E09
:1010F000FEEFCF2EF02DDD24DA94A22CB32C52C1BA
:101100000F2EFCEFCF2EF02DDD24DA94A22CB32C81
:1011100049C10F2EF5E0CF2EF02DDD240F2EF5E086
:10112000AF2EF02DBB243EC1C02ED12E0F2EF5E0E8
:10113000AF2EF02DBB2436C1C82CD92C0F2EF5E0D4
:10114000AF2EF02DBB242EC1CC24CA94DD24DA941A
:101150000F2EF5E0AF2EF02DBB2424C10F2EFDEF96
:10116000CF2EF02DDD24DA940F2EF5E0AF2EF02DEA
:10117000BB2418C10F2EFBEFCF2EF02DDD24DA9407
:101180000F2EF5E0AF2EF02DBB240CC10F2EF5E095
:10119000CF2EF02DDD240F2EF6E0AF2EF02DBB2448
:1011A00001C1C02ED12E0F2EF6E0AF2EF02DBB24A4
:1011B000F9C0C82CD92C0F2EF6E0AF2EF02DBB2491
:1011C000F1C0CC24CA94DD24DA940F2EF6E0AF2EC1
:1011D000F02DBB24E7C00F2EFDEFCF2EF02DDD2428
:1011E000DA940F2EF6E0AF2EF02DBB24DBC00F2ECD
:1011F000FBEFCF2EF02DDD24DA940F2EF6E0AF2E8C
:10120000F02DBB24CFC0C22CD32C0F2EF7E0AF2E75
:10121000F02DBB24C7C0CC246894C1F8DD240F2E68
:10122000F7E0AF2EF02DBB24BDC0CC24DD240F2E63
:10123000F7E0AF2EF02DBB24B5C00F2EFEEFCF2E62
:10124000F02DDD24DA940F2EF7E0AF2EF02DBB2425
:10125000A9C00F2EFCEFCF2EF02DDD24DA940F2E37
:10126000F7E0AF2EF02DBB249DC0C22CD32CAA24B6
:101270006894A3F8BB2496C0CC246894C1F8DD24FC
:10128000AA246894A3F8BB248DC0CC24DD24AA240E
:101290006894A3F8BB2486C00F2EFEEFCF2EF02D4E
:1012A000DD24DA94AA246894A3F8BB247BC00F2E13
:1012B000FCEFCF2EF02DDD24DA94AA246894A3F855
:1012C000BB2470C0C02ED12E0F2EF9E0AF2EF02D12
:1012D000BB2468C0C82CD92C0F2EF9E0AF2EF02DFE
:1012E000BB2460C0CC24CA94DD24DA940F2EF9E02C
:1012F000AF2EF02DBB2456C00F2EFDEFCF2EF02DBC
:10130000DD24DA940F2EF9E0AF2EF02DBB244AC075
:10131000C02ED12E0F2EFAE0AF2EF02DBB2442C0EE
:10132000C82CD92C0F2EFAE0AF2EF02DBB243AC0DA
:10133000CC24CA94DD24DA940F2EFAE0AF2EF02DDF
:10134000BB2430C00F2EFDEFCF2EF02DDD24DA941C
:101350000F2EFAE0AF2EF02DBB2424C0CC246894CD
:10136000C1F8DD240F2EFBE0AF2EF02DBB241AC0F8
:10137000CC24DD240F2EFBE0AF2EF02DBB2412C0B9
:101380000F2EFEEFCF2EF02DDD24DA940F2EFBE092
:10139000AF2EF02DBB2406C0CC246894C1F8DD2408
:1013A000AA24BB242A173B0721F4CF82D886AB821C
:1013B000BC82862F972FE216F30621F45C2C7D2C3D
:1013C000AD82BE824F5F5F4F4330510509F0F4CDCF
:1013D0004C01452D572D6F8178858D819E812B8104
:1013E0003C818C01021B130B1A01261A370AC80113
:1013F000B1010E945706101611060CF072C01214AB
:10140000130424F580917F0490918004813091052C
:1014100059F489819A8101969A838983FC01ED5A56
:10142000FA4F8CE48083D1C080917F049091800436
:101430008230910559F4A981BA811196BA83A983A2
:10144000FD01ED5AFA4F82E58083BFC021143104BB
:1014500019F580917F04909180048330910551F4B7
:10146000E981FA813196FA83E983ED5AFA4F82E5F0
:101470008083ABC080917F0490918004823091057D
:1014800059F489819A8101969A838983FC01ED5AE6
:10149000FA4F8CE4808399C033201CF580917F043F
:1014A000909180048330910559F4A981BA811196F5
:1014B000BA83A983FD01ED5AFA4F8CE4808385C07D
:1014C00080917F04909180048130910551F4E981ED
:1014D000FA813196FA83E983ED5AFA4F82E58083E7
:1014E00074C011230CF071C0332024F580917F0467
:1014F000909180048230910559F489819A810196F6
:101500009A838983FC01ED5AFA4F82E580835DC09E
:1015100080917F04909180048130910559F4A981D4
:10152000BA811196BA83A983FD01ED5AFA4F8CE472
:1015300080834BC02114310419F580917F04909170
:1015400080048230910551F4E981FA813196FA8361
:10155000E983ED5AFA4F8CE4808337C080917F0491
:10156000909180048330910559F489819A81019684
:101570009A838983FC01ED5AFA4F82E5808325C066
:101580001214130414F580917F0490918004833029
:10159000910559F4A981BA811196BA83A983FD01F5
:1015A000ED5AFA4F8CE4808310C080917F049091B3
:1015B00080048130910549F4E981FA813196FA83FA
:1015C000E983ED5AFA4F82E5808389819A810E94EE
:1015D00060070894E11CF11C8091B1059091B2055F
:1015E0008816990644F01CC0EE24FF24E3948FEF84
:1015F0009FEF9A838983D70111979D0141E050E0C5
:1016000088249924839403E010E0222433246894EE
:1016100022F86E2D7F2D6A2E4B2EE986FA86D4CCC9
:10162000E981FA81ED5AFA4F11820E94530580E058
:1016300090E02A960FB6F894DEBF0FBECDBFDF91C3
:10164000CF911F910F91FF90EF90DF90CF90BF90BF
:10165000AF909F908F907F906F905F904F903F9052
:101660002F9008950F931F93CF93DF938FEF9FEFEA
:101670009093A2058093A1059093A4058093A30560
:101680009093A6058093A5059093A8058093A70540
:101690009093AA058093A9059093AC058093AB0520
:1016A0009093AE058093AD059093B0058093AF0500
:1016B000C9ECD4E0FE0101900020E9F731970DE27A
:1016C00010E011830083CE0165EC74E00E948A195A
:1016D000CE010E94FE0261E070E00E942303CEEB87
:1016E000D4E0FE0101900020E9F7319711830083D7
:1016F000CE016AEB74E00E948A19CE010E94FE02BC
:1017000062E070E00E942303C3EBD4E0FE0101908D
:101710000020E9F7319711830083CE016FEA74E06E
:101720000E948A19CE010E94FE0263E070E00E94CE
:101730002303C8EAD4E0FE0101900020E9F73197C5
:1017400011830083CE0164EA74E00E948A19CE01FD
:101750000E94FE0260E070E00E94230380E090E0BF
:10176000DF91CF911F910F910895CF93DF93EC01FB
:1017700060FD6EC18091A5059091A6058633910507
:1017800089F060919B0570919C054091B305509143
:10179000B405CE0121E030E00E943C049093A60500
:1017A0008093A5058091A7059091A80586339105A2
:1017B00089F060919B0570919C054091970550912F
:1017C0009805CE0121E030E00E943C049093A805EA
:1017D0008093A7058091A9059091AA05863391056C
:1017E00089F060919B0570919C0540919D055091F9
:1017F0009E05CE0121E030E00E943C049093AA05B2
:101800008093A9058091AB059091AC058633910535
:1018100089F060919B0570919C0540918C055091D9
:101820008D05CE0121E030E00E943C049093AC0590
:101830008093AB058091AD059091AE0586339105FF
:1018400089F060919B0570919C05409191055091A4
:101850009205CE0121E030E00E943C049093AE0559
:101860008093AD058091AF059091B00586339105C9
:1018700089F060919B0570919C0540919405509171
:101880009505CE0121E030E00E943C049093B00524
:101890008093AF054091A5055091A605E5EAF5E0D6
:1018A00082E090E062E070E02191319142175307AD
:1018B00014F0BC01A901019688309105A9F76230A6
:1018C0007105F1F48091B3059091B4059093B6053C
:1018D0008093B5058091C50490E0C09790939A05D8
:1018E0008093990586E390E09093A6058093A505E3
:1018F0009093A8058093A70581E680938B0542C04D
:1019000063307105F1F4809197059091980590935B
:10191000B6058093B5058091C50490E0C09790937B
:101920009A058093990586E390E09093A8058093AB
:10193000A7059093A6058093A50581E680938B0566
:1019400042C064307105F1F480919D0590919E052F
:101950009093B6058093B5058091BA0490E0C09746
:1019600090939A058093990586E390E09093AA0559
:101970008093A9059093AC058093AB0582E6809394
:101980008B0542C065307105F1F48091BA0490E096
:10199000C09790939A058093990580918C059091BA
:1019A0008D059093B6058093B50586E390E09093FE
:1019B000AC058093AB059093AA058093A90582E6B8
:1019C00080938B0541C066307105F1F480919105DB
:1019D000909192059093B6058093B5058091AF04E0
:1019E00090E0C09790939A058093990586E390E0E4
:1019F0009093AE058093AD059093B0058093AF05AD
:101A000083E680938B0520C067307105E9F48091EF
:101A10009405909195059093B6058093B5058091B6
:101A2000AF0490E0C09790939A058093990586E360
:101A300090E09093AE058093AD059093B0058093B0
:101A4000AF0583E680938B0580E58093930547C0BF
:101A500060919B0570919C0540918E0550918F057A
:101A600021E030E00E943C049093A2058093A10500
:101A700060919B0570919C0540919F055091A00538
:101A8000CE0121E030E00E943C049093A4058093B5
:101A9000A3052091A1053091A205821793074CF070
:101AA00080918E0590918F059093B6058093B50532
:101AB00008C080919F059091A0059093B6058093F2
:101AC000B5058091A40490E0C09790939A05809307
:101AD000990587E58093930584E680938B0580E0E4
:101AE00090E0DF91CF9108950F931F93CF93DF93F1
:101AF000EC018B016091D8047091D9040E94B50B60
:101B00008091D8049091D90401969093D904809340
:101B1000D80480919305873549F48091DA04909137
:101B2000DB0401969093DB048093DA044091B505C1
:101B30005091B605CE01B8010E94B10780E090E057
:101B4000DF91CF911F910F910895EF92FF920F9324
:101B50001F93CF93DF9380917F0490918004813015
:101B6000910509F091C12091990530919A05233092
:101B7000310509F0BFC08AEF90E00E9496028DE720
:101B800062E80E948A010E94A80183E00E94580135
:101B90008093E60482E00E9458018093E50481E08E
:101BA0000E9458018093E4049091E504953158F423
:101BB0002091E604263110F0853170F0253118F4BB
:101BC000863108F072C59631D0F29091E6049631D4
:101BD000B0F28631A0F204C08FE090E00E94600273
:101BE00084EF91E00E94960280EA90E00E946002F9
:101BF0000E94B10184E680938B050E940901C4EB29
:101C0000D0E009EE10E07801CE01F80119958FEFD0
:101C10009FE80197F1F700C000002197CC33D10570
:101C200091F702E011E0F801199580918B05843657
:101C3000C9F50E94A20180917B0490917C048130BF
:101C4000910569F48DE60E94090180917B049091D1
:101C50007C04019690937C0480937B041FC08230A7
:101C6000910569F488E60E94090180917B049091B6
:101C70007C04019690937C0480937B040FC0833096
:101C8000910561F486E60E94090180917B049091A0
:101C90007C04019690937C0480937B048EE60E94E2
:101CA000090116C0813619F480E70E94090180916C
:101CB0008B05823619F481E70E94090180918B051A
:101CC000833619F482E70E94090187E70E9409011F
:101CD000CCE3D0E0CE01F7011995AFEFBFE8119743
:101CE000F1F700C000002196C43BD10599F7F80137
:101CF0001995D2C42230310509F0C6C08AEF90E0B0
:101D00000E9496028DE762E80E948A010E94A80163
:101D100083E00E9458018093E60482E00E9458010B
:101D20008093E50481E00E9458018093E40490913F
:101D3000E504953158F42091E604263110F0853100
:101D400070F0253118F4863108F0B4C49631D0F221
:101D50009091E6049631B0F28631A0F204C08FE093
:101D600090E00E94600284EF91E00E94960280EA77
:101D700090E00E9455020E94B10180918B0584364B
:101D800019F40E94090105C085E70E9409010E941B
:101D90009E01C4EBD0E009EE10E07801CE01F8011D
:101DA00019958FEF9FE80197F1F700C00000219788
:101DB000CC33D10591F702E011E0F801199580913B
:101DC0008B058436C9F50E94A20180917B04909115
:101DD0007C048130910569F48DE60E9409018091AF
:101DE0007B0490917C04019690937C0480937B0407
:101DF0001FC08230910569F488E60E940901809134
:101E00007B0490917C04019690937C0480937B04E6
:101E10000FC08330910561F486E60E94090180912C
:101E20007B0490917C04019690937C0480937B04C6
:101E30008EE60E94090116C0813619F480E70E94DF
:101E4000090180918B05823619F481E70E9409010E
:101E500080918B05833619F482E70E94090187E798
:101E60000E940901CCE3D0E0CE01F7011995AFEF54
:101E7000BFE81197F1F700C000002196C43BD105DF
:101E800099F7F801199508C48230910509F098C1B5
:101E90002091990530919A052130310509F0C6C08D
:101EA0008AEF90E00E9496028DE762E80E948A0124
:101EB0000E94A80183E00E9458018093E60482E01A
:101EC0000E9458018093E50481E00E9458018093AC
:101ED000E4049091E504953158F42091E60426310C
:101EE00010F0853170F0253118F4863108F0E7C321
:101EF0009631D0F29091E6049631B0F28631A0F29C
:101F000004C08FE090E00E94600284EF91E00E94A4
:101F1000960280EA90E00E9460020E94B1018091E6
:101F20008B05843619F40E94090105C085E70E94DB
:101F300009010E949E01C4EBD0E009EE10E0780197
:101F4000CE01F80119958FEF9FE80197F1F700C0D6
:101F500000002197CC33D10591F702E011E0F801A0
:101F6000199580918B058436C9F50E94A201809154
:101F70007B0490917C048130910569F48DE60E9488
:101F8000090180917B0490917C04019690937C04DC
:101F900080937B041FC08230910569F488E60E941B
:101FA000090180917B0490917C04019690937C04BC
:101FB00080937B040FC08330910561F486E60E9414
:101FC000090180917B0490917C04019690937C049C
:101FD00080937B048EE60E94090116C0813619F4B5
:101FE00080E70E94090180918B05823619F481E710
:101FF0000E94090180918B05833619F482E70E94C3
:10200000090187E70E940901CCE3D0E0CE01F70186
:102010001995AFEFBFE81197F1F700C000002196C6
:10202000C43BD10599F7F801199536C32330310522
:1020300009F0C6C08AEF90E00E9496028DE762E840
:102040000E948A010E94A80183E00E9458018093A7
:10205000E60482E00E9458018093E50481E00E943A
:1020600058018093E4049091E504953158F420914F
:10207000E604263110F0853170F0253118F48631F0
:1020800008F022C39631D0F29091E6049631B0F276
:102090008631A0F204C08FE090E00E94600284EFDD
:1020A00091E00E94960280EA90E00E9455020E9410
:1020B000B10180918B05843619F40E94090105C095
:1020C00085E70E9409010E949E01C4EBD0E009EE61
:1020D00010E07801CE01F80119958FEF9FE8019784
:1020E000F1F700C000002197CC33D10591F702E051
:1020F00011E0F801199580918B058436C9F50E948D
:10210000A20180917B0490917C048130910569F457
:102110008DE60E94090180917B0490917C040196D8
:1021200090937C0480937B041FC08230910569F4F6
:1021300088E60E94090180917B0490917C040196BD
:1021400090937C0480937B040FC08330910561F4ED
:1021500086E60E94090180917B0490917C0401969F
:1021600090937C0480937B048EE60E94090116C044
:10217000813619F480E70E94090180918B0582362F
:1021800019F481E70E94090180918B05833619F4C7
:1021900082E70E94090187E70E940901CCE3D0E0B1
:1021A000CE01F7011995AFEFBFE81197F1F700C025
:1021B00000002196C43BD10599F7F80119956CC22E
:1021C0008330910509F0A3C18091990590919A05FA
:1021D0008130910509F0C6C08AEF90E00E94960216
:1021E0008DE762E80E948A010E94A80183E00E94B4
:1021F00058018093E60482E00E9458018093E50430
:1022000081E00E9458018093E4049091E5049531A7
:1022100058F42091E604263110F0853170F0253114
:1022200018F4863108F055C29631D0F29091E60448
:102230009631B0F28631A0F204C08FE090E00E94A7
:10224000600284EF91E00E94960280EA90E00E9492
:1022500055020E94B10180918B05843619F40E94C9
:10226000090105C085E70E9409010E949E01C4EB97
:10227000D0E009EE10E07801CE01F80119958FEF5A
:102280009FE80197F1F700C000002197CC33D105FA
:1022900091F702E011E0F801199580918B058436E1
:1022A000C9F50E94A20180917B0490917C04813049
:1022B000910569F48DE60E94090180917B0490915B
:1022C0007C04019690937C0480937B041FC0823031
:1022D000910569F488E60E94090180917B04909140
:1022E0007C04019690937C0480937B040FC0833020
:1022F000910561F486E60E94090180917B0490912A
:102300007C04019690937C0480937B048EE60E946B
:10231000090116C0813619F480E70E9409018091F5
:102320008B05823619F481E70E94090180918B05A3
:10233000833619F482E70E94090187E70E940901A8
:10234000CCE3D0E0CE01F7011995AFEFBFE81197CC
:10235000F1F700C000002196C43BD10599F7F801C0
:1023600019959AC18230910509F0D1C08AEF90E0A9
:102370000E9496028DE762E80E948A010E94A801ED
:1023800083E00E9458018093E60482E00E94580195
:102390008093E50481E00E9458018093E4049091C9
:1023A000E504953158F42091E604263110F085318A
:1023B00070F0253118F4863108F090C19631D0F2D2
:1023C0009091E6049631B0F28631A0F204C08FE01D
:1023D00090E00E94600284EF91E00E9496020E94C9
:1023E000B1018FEF9FEFACE281509040A040E1F748
:1023F00000C0000080EA90E00E9460020E94B101EB
:1024000080918B05843619F40E94090105C085E787
:102410000E9409010E949E01C4EBD0E009EE10E089
:102420007801CE01F8011995AFEFBFE81197F1F7E8
:1024300000C000002197CC33D10591F702E011E0F4
:10244000F801199580918B058436C9F50E94A20187
:1024500080917B0490917C048130910569F48DE634
:102460000E94090180917B0490917C0401969093D5
:102470007C0480937B041FC08230910569F488E658
:102480000E94090180917B0490917C0401969093B5
:102490007C0480937B040FC08330910561F486E651
:1024A0000E94090180917B0490917C040196909395
:1024B0007C0480937B048EE60E94090116C081365D
:1024C00019F480E70E94090180918B05823619F486
:1024D00081E70E94090180918B05833619F482E718
:1024E0000E94090187E70E940901CCE3D0E0CE01F8
:1024F000F70119958FEF9FE80197F1F700C00000F1
:102500002196C43BD10599F7F8011995C5C08AEF0A
:1025100090E00E9496028DE762E80E948A010E9484
:10252000A80183E00E9458018093E60482E00E94A3
:1025300058018093E50481E00E9458018093E404EF
:102540009091E504953158F42091E604263110F07D
:10255000853170F0253118F4863108F0C4C0963109
:10256000D0F29091E6049631B0F28631A0F204C028
:102570008FE090E00E9460020E94B10186E990E045
:102580000E94960280918B05843619F40E940901FD
:1025900005C085E70E9409010E949E01C4EBD0E0BE
:1025A00009EE10E07801CE01F8011995AFEFBFE810
:1025B0001197F1F700C000002197CC33D10591F7B6
:1025C00002E011E0F801199580918B058436C9F578
:1025D0000E94A20180917B0490917C04813091053E
:1025E00069F48DE60E94090180917B0490917C043E
:1025F000019690937C0480937B041FC082309105E8
:1026000069F488E60E94090180917B0490917C0422
:10261000019690937C0480937B040FC083309105D6
:1026200061F486E60E94090180917B0490917C040C
:10263000019690937C0480937B048EE60E940901AE
:1026400016C0813619F480E70E94090180918B053C
:10265000823619F481E70E94090180918B05833647
:1026600019F482E70E94090187E70E940901CCE37F
:10267000D0E0CE01F70119958FEF9FE80197F1F7B0
:1026800000C000002196C43BD10599F7F8011995C7
:102690008CE291E00E94A50280E090E0DF91CF9172
:1026A0001F910F91FF90EF9008958FE090E00E94AE
:1026B000550296CA8FE090E00E94550254CB8FE0FD
:1026C00090E00E94550221CC8FE090E00E945502DC
:1026D000E6CC8FE090E00E945502B3CD8FE090E011
:1026E0000E94550278CE8FE090E00E94550244CFC0
:1026F000EF92FF920F931F93CF93DF93CDB7DEB787
:10270000C85CD6410FB6F894DEBF0FBECDBF0E94A5
:10271000290180E40E94090100ED14E00F2EF7E08A
:10272000EF2EFF24F02DE00EF11E0E942101D801B2
:102730008D938D01AE15BF05C1F707E914E00F2E8B
:10274000FDE0EF2EFF24F02DE00EF11E0E9421018E
:10275000F80181938F01EE15FF05C1F70E94210159
:102760008093A8040E9421018093A9040E94210162
:102770008093A4040E9421018093A5040E9421015A
:102780008093A60400E914E00F2EF7E0EF2EFF245B
:10279000F02DE00EF11E0E942101D8018D938D01D4
:1027A000AE15BF05C1F70E9421018093C9040E94A4
:1027B00021018093CA040E9421018093C5040E94D4
:1027C00021018093C6040E9421018093C70409E877
:1027D00014E00F2EF7E0EF2EFF24F02DE00EF11E97
:1027E0000E942101F80181938F01EE15FF05C1F7C9
:1027F0000E9421018093BE040E9421018093BF04A6
:102800000E9421018093BA040E9421018093BB049D
:102810000E9421018093BC0402E814E00F2EF7E02F
:10282000EF2EFF24F02DE00EF11E0E942101D801B1
:102830008D938D01AE15BF05C1F70E9421018093D4
:10284000B3040E9421018093B4040E94210180936B
:10285000AF040E9421018093B0040E942101809363
:10286000B1048091C904803331F48091CA0480930B
:10287000C9041092CA048091BE04803331F480915F
:10288000BF048093BE041092BF048091B3048033D0
:1028900031F48091B4048093B3041092B404809115
:1028A000A804803331F48091A9048093A804109285
:1028B000A9040E94E3020E9495010E948103FE0187
:1028C000319688EC96E1DF019C011D922150304049
:1028D000E1F781E090E098878F839A878987E79670
:1028E0009FAF8EAFE797E9969FAF8EAFE997CD5137
:1028F000DF4F99838883C35ED040CB51DF4F9983EC
:102900008883C55ED040CB5BDE4F99838883C554F6
:10291000D140CD5ADE4F99838883C355D140CF54DF
:10292000DE4F99838883C15BD140CD54DE4F9983BC
:102930008883C35BD140CF53DE4F99838883C15CCA
:10294000D140C15EDD4F99838883CF51D240CF5DA6
:10295000DD4F99838883C152D240C15DDD4F998399
:102960008883CF52D240C357DD4F99838883CD5897
:10297000D240C356DD4F99838883CD59D240C5508C
:10298000DD4F99838883CB5FD240C55FDC4F99834D
:102990008883CB50D340C35FDC4F99838883CD506D
:1029A000D340C759DC4F99838883C956D340C75851
:1029B000DC4F99838883C957D340C558DC4F99832E
:1029C0008883CB57D340C952DC4F99838883C75D36
:1029D000D340C951DC4F99838883C75ED340C75128
:1029E000DC4F99838883C95ED340CB5BDB4F9983EF
:1029F0008883C554D440CB5ADB4F99838883C5550F
:102A0000D440C95ADB4F99838883C755D440CD54ED
:102A1000DB4F99838883C35BD440CB53DB4F9983CF
:102A20008883C55CD440C15EDA4F99838883CF51D7
:102A3000D540CF5DDA4F99838883C152D540CD5CB4
:102A4000DA4F99838883C353D540C357DA4F9983AC
:102A50008883CD58D540C157DA4F99838883CF58A2
:102A6000D540CF55DA4F99838883C15AD540C55098
:102A7000DA4F99838883CB5FD540C350DA4F99836F
:102A80008883CD5FD540C15FD94F99838883CF506C
:102A9000D640C759D94F99838883C956D640C35861
:102AA000D94F99838883CD57D640C952D94F99833E
:102AB0008883C75DD640C551D94F99838883CB5E43
:102AC000D640C351D94F99838883CD5ED640CB5B26
:102AD000D84F99838883C554D740C75AD84F998314
:102AE0008883C955D740C55AD84F99838883CB5519
:102AF000D740CD54D84F99838883C35BD740C953FF
:102B0000D84F99838883C75CD740C753D84F9983E0
:102B10008883C95CD740CF5DD74F99838883C152E2
:102B2000D840CB5CD74F99838883C553D840C95CC4
:102B3000D74F99838883C753D840C157D74F9983BC
:102B40008883CF58D840CD55D74F99838883C35AAF
:102B5000D840CB55D74F99838883C55AD840C350A6
:102B6000D74F99838883CD5FD840CD5ED64F998368
:102B70008883C351D940C759D64F99838883C95692
:102B8000D940C559D64F99838883CB56D940CF5762
:102B9000D64F99838883C158D940C952D64F99835B
:102BA0008883C75DD940C752D64F99838883C95D52
:102BB000D940C151D64F99838883CF5ED940CB5B32
:102BC000D54F99838883C554DA40C95BD54F998323
:102BD0008883C754DA40C35AD54F99838883CD552B
:102BE000DA40CD54D54F99838883C35BDA40CB5408
:102BF000D54F99838883C55BDA40C553D54F9983F8
:102C00008883CB5CDA40CF5DD44F99838883C152EF
:102C1000DB40C75CD44F99838883C953DB40C157DD
:102C2000D44F99838883CF58DB40C955D44F9983BB
:102C30008883C75ADB40C350D44F99838883CD5FC4
:102C4000DB40CD5ED34F99838883C351DC40CB5E9C
:102C5000D34F99838883C551DC40C559D34F99839D
:102C60008883CB56DC40CF57D34F99838883C15894
:102C7000DC40CD57D34F99838883C358DC40C7527B
:102C8000D34F99838883C95DDC40C151D34F998369
:102C90008883CF5EDC40CF50D34F99838883C15F58
:102CA000DC40C95BD24F99838883C754DD40C35A47
:102CB000D24F99838883CD55DD40C15AD24F998335
:102CC0008883CF55DD40CB54D24F99838883C55B31
:102CD000DD40C553D24F99838883CB5CDD40CD5D09
:102CE000D14F99838883C352DE40CB5DD14F998306
:102CF0008883C552DE40C75CD14F99838883C9530E
:102D0000DE40CF56D14F99838883C159DE40CD56DE
:102D1000D14F99838883C359DE40C955D14F9983D8
:102D20008883C75ADE40C150D14F99838883CF5FD3
:102D3000DE40CF5FD04F99838883C150DF40CB5EA8
:102D4000D04F99838883C551DF40C359D04F9983B1
:102D50008883CD56DF40C159D04F99838883CF56A1
:102D6000DF40CD57D04F99838883C358DF40C55289
:102D7000D04F99838883CB5DDF40C352D04F998376
:102D80008883CD5DDF40CF50D04F99838883C15F6A
:102D9000DF40C55BDF4E99838883CB54D041C15A55
:102DA000DF4E99838883CF55D041C754DF4E998336
:102DB0008883C95BD041C553DF4E99838883CB5C40
:102DC000D041C353DF4E99838883CD5CD041C95D28
:102DD000DE4E99838883C752D141C75CDE4E99830A
:102DE0008883C953D141C55CDE4E99838883CB5318
:102DF000D141CB56DE4E99838883C559D141C955FF
:102E0000DE4E99838883C75AD141C755DE4E9983D8
:102E10008883C95AD141CD5FDD4E99838883C350E1
:102E2000D241CB5EDD4E99838883C551D241CF58C4
:102E3000DD4E99838883C157D241CD58DD4E9983A9
:102E40008883C357D241CD57DD4E99838883C358B9
:102E5000D241C152DD4E99838883CF5DD241CF519B
:102E6000DD4E99838883C15ED241CF50DD4E998378
:102E70008883C15FD241C35BDC4E99838883CD5484
:102E8000D341C15BDC4E99838883CF54D341C15A6F
:102E9000DC4E99838883CF55D341C554DC4E99834A
:102EA0008883CB5BD341C354DC4E99838883CD5B4D
:102EB000D341C353DC4E99838883CD5CD341C55D38
:102EC000DB4E99838883CB52D441C55CDB4E99831A
:102ED0008883CB53D441C756DB4E99838883C95925
:102EE000D441C955DB4E99838883C75AD441C7550D
:102EF000DB4E99838883C95AD441C95FDA4E9983DE
:102F00008883C750D541CB5EDA4E99838883C551FB
:102F1000D541C95EDA4E99838883C751D541CB58D4
:102F2000DA4E99838883C557D541CD57DA4E9983B8
:102F30008883C358D541CD51DA4E99838883C35EC7
:102F4000D541CB51DA4E99838883C55ED541CF5A9E
:102F5000D94E99838883C155D641CD5AD94E99838C
:102F60008883C355D641C154D94E99838883CF5B9A
:102F7000D641CF53D94E99838883C15CD6410E94F4
:102F8000320B60919B0570919C05CE0101960E94C9
:102F9000740D0E94A50D8091990590919A059093CA
:102FA000800480937F048091DA049091DB04833065
:102FB000910501F58AE70E9409010E943C018FEF0B
:102FC0009FEFA0EE81509040A040E1F700C00000CC
:102FD0000E94400180E090E0C853D94E0FB6F894AB
:102FE000DEBF0FBECDBFDF91CF911F910F91FF903C
:102FF000EF9008958091B5059091B60590939C054A
:1030000080939B05BECF5058BB27AA270ED048C13E
:1030100039D130F03ED120F031F49F3F11F41EF44D
:103020002EC10EF4E095E7FB24C1E92F4AD180F3CD
:10303000BA17620773078407950718F071F49EF5B5
:1030400062C10EF4E0950B2EBA2FA02D0B01B90131
:1030500090010C01CA01A0011124FF27591B99F00E
:10306000593F50F4503E68F11A16F040A22F232F1A
:10307000342F4427585FF3CF469537952795A7956A
:10308000F0405395C9F77EF41F16BA0B620B730B11
:10309000840BBAF09150A1F0FF0FBB1F661F771F82
:1030A000881FC2F70EC0BA0F621F731F841F48F437
:1030B000879577956795B795F7959E3F08F0B3CFBD
:1030C0009395880F08F09927EE0F979587950895A7
:1030D0000CD0E6C0DED040F0D5D030F021F45F3F18
:1030E00019F0C7C0511110C1CAC0EBD098F3992391
:1030F000C9F35523B1F3951B550BBB27AA276217BC
:103100007307840738F09F5F5F4F220F331F441F00
:10311000AA1FA9F333D00E2E3AF0E0E830D0915038
:103120005040E695001CCAF729D0FE2F27D0660F25
:10313000771F881FBB1F261737074807AB07B0E864
:1031400009F0BB0B802DBF01FF2793585F4F2AF07A
:103150009E3F510568F08DC0D7C05F3FECF3983EAD
:10316000DCF3869577956795B795F7959F5FC9F7D7
:10317000880F911D9695879597F90895E1E0660F60
:10318000771F881FBB1F621773078407BA0720F0D9
:10319000621B730B840BBA0BEE1F88F7E095089542
:1031A00098D088F09F5790F0B92F9927B751A0F089
:1031B000D1F0660F771F881F991F1AF0BA95C9F7CB
:1031C00012C0B13081F09FD0B1E008959CC0672F4C
:1031D000782F8827B85F39F0B93FCCF3869577957B
:1031E0006795B395D9F73EF4909580957095619564
:1031F0007F4F8F4F9F4F0895E89409C097FB3EF48F
:1032000090958095709561957F4F8F4F9F4F992333
:10321000A9F0F92F96E9BB279395F69587957795B1
:103220006795B795F111F8CFFAF4BB0F11F460FF71
:103230001BC06F5F7F4F8F4F9F4F16C0882311F0C9
:1032400096E911C0772321F09EE8872F762F05C0DD
:10325000662371F096E8862F70E060E02AF09A9578
:10326000660F771F881FDAF7880F9695879597F96D
:10327000089597F99F6780E870E060E008959FEFF8
:1032800080EC089500240A941616170618060906FD
:10329000089500240A9412161306140605060895CC
:1032A000092E0394000C11F4882352F0BB0F40F454
:1032B000BF2B11F460FF04C06F5F7F4F8F4F9F4F94
:1032C000089557FD9058440F551F59F05F3F71F016
:1032D0004795880F97FB991F61F09F3F79F087957D
:1032E0000895121613061406551FF2CF4695F1DF06
:1032F00008C0161617061806991FF1CF8695710596
:10330000610508940895E894BB2766277727CB01C9
:1033100097F90895FB01DC010D900020E9F7119762
:1033200001900D920020E1F70895FB01DC018D91E1
:10333000019080190110D9F3990B0895F894FFCFEB
:1033400053544152542D310000000C00030008007A
:103350000400070001000D0004000900050008003A
:1033600002000E0005000A00060009000700160012
:103370000B0011000C001000080017000C001200D8
:103380000D001100090018000D0013000E001200BE
:103390000A0019000E0014000F0013001000210095
:1033A00015001C0016001B001100220016001D0055
:1033B00017001C001200230017001E0018001D003B
:1033C000130024000C001F0019001E00140025002B
:1033D000190020001A001F001C002B0021002700EC
:1033E000220026001D002C002200280023002700B8
:1033F0001E002D0023002900240028001F002E009D
:1034000024002A0025002900270033002B0030006B
:103410002C002F00280034002C0031002D0030003B
:10342000290035002D0032002E003100352D312DC0
:10343000310000352D322D320000352D332D330073
:103440000031302D312D310031302D322D3200310F
:10345000302D332D330031352D312D310031352DC7
:10346000322D320031352D332D3300322D312D31B7
:103470000000322D322D320000322D332D3300006A
:10348000362D312D310000362D322D320000362DF3
:10349000332D33000031312D312D310031312D32BA
:1034A0002D320031312D332D330031362D312D3178
:1034B0000031362D322D320031362D332D3300318F
:1034C0002D312D310000312D322D320000312D33C0
:1034D0002D330000332D312D310000332D322D32AC
:1034E0000000332D332D330000372D312D310000F6
:1034F000372D322D320000372D332D33000031327D
:103500002D312D310031322D322D320031322D331B
:103510002D330031372D312D310031372D322D3201
:103520000031372D332D3300342D312D310000344F
:103530002D322D320000342D332D330000382D3143
:103540002D310000382D322D320000382D332D332F
:10355000000031332D312D310031332D322D320029
:1035600031332D332D330031382D312D31003138A9
:103570002D322D320031382D332D3300392D312DA0
:10358000310000392D322D320000392D332D33001A
:103590000031342D312D310031342D322D320031B6
:1035A000342D332D330031392D312D310031392D6A
:1035B000322D320031392D332D330001000100014D
:0235C000000009
:00000001FF
